:10000000FEEF03F00C202020534946524520444F78
:10001000475255000C202053494652452048415430
:10002000414C49000C204C555446454E2042454B0E
:100030004C4559494E000A4B415049204143494CD7
:1000400049594F522E2E2E000C2020204B41504952
:10005000204143494B0A20202020202020256400F5
:100060000C4B415049204B4150414E49594F522E63
:100070002E2E00000C204B415049204B4150414E48
:10008000444900000C53494652454E495A3A2025EE
:1000900063000A233A204749524953202A3A205301
:1000A000494C00000C204C555446454E20534946BF
:1000B000524559490A20202020474952494E495A61
:1000C000202020000C53494652454E495A3A2025DB
:1000D00063000A233A204749524953202A3A2053C1
:1000E000494C0000EA6A2F0EE96EEF500EE0010E57
:1000F000016E006A002EFED7012EFBD74A0E006E5D
:10010000002EFED700D0EF2EF2D7120036B002D06C
:100110008A9601D08A86939636B202D08A9401D00C
:100120008A84939436B402D08A9201D08A829392C0
:1001300036B602D08A9001D08A80939000008A8AD5
:10014000939A00D08A9A939A1200376A9386000E87
:1001500081B6010E37129384000E81B4010E006E39
:10016000D8900036005037129382000E81B2010EF3
:10017000006E00360036FC0E0016005037129380D9
:10018000000E81B0010E006E003600360036F80E0B
:1001900000160050371237C001F012009386938486
:1001A000938293808A8C939C00008A8A939A0000A1
:1001B000CCDF01C036F08A9A939A00008A8A939A1B
:1001C0000000C3DF01C035F08A9A939A9396939406
:1001D000939293903638006EF00E00160050351052
:1001E000016EF9EF00F0939A939E939C8A9E939EE2
:1001F000D5D701C035F001BEFBD7335202E18A9E4C
:1002000001D08A8E939E00008A9C939C00008A9A5B
:10021000939A3438356E0F0E351635C036F076DFCA
:1002200034500F0B356E366E71DF1200280E286EBB
:100230000C0E296E010E2A6E060E2B6E8A9A939A68
:100240008A9E939E8A9C939C939693949392939068
:10025000939A939E939C0F0E2F6E44DF010E276E90
:100260002750030808E3030E366E50DF050E2F6E8D
:1002700039DF272AF5D7020E366E48DF050E2F6EBE
:1002800031DF276A275003080FE3036A2750280F3E
:10029000E96E000E0320EA6EEFCF2CF0336A2CC01B
:1002A00034F0A1DF272AEED742EF04F0336A010EC3
:1002B000346E99DF43EF04F0302C01D003D0400EB0
:1002C000316E01D0316A010E2F5C31263150800928
:1002D000326E336A346E87DF12002E50070A07E051
:1002E0000B0A0AE0060A10E0020A14E018D0010E18
:1002F0002F6E306EE1DF18D0336A010E346E73DF7B
:10030000020E2F6EEFDE10D0010E2F6E020E306E39
:10031000D3DF0AD0336A100E346E65DF05D0010ECC
:10032000336E2EC034F05FDF12000900F5520CE08E
:10033000F6CF2AF0F7CF2BF0F5CF2EF0CEDF2AC084
:10034000F6FF2BC0F7FFF1D71200A40EF66E000ED9
:10035000F76EEBDF120095908C80958683A609D00E
:10036000190E2F6EBFDE010E056E310E016E91D09B
:1003700023D0958883A809D0190E2F6EB3DE010E05
:10038000056E340E016E85D017D0958A83AA09D0E8
:10039000190E2F6EA7DE010E056E370E016E79D095
:1003A0000BD0958C83AC08D0190E2F6E9BDE010EFE
:1003B000056E2A0E016E6DD095908C9095928C8270
:1003C000958683A609D0190E2F6E8CDE010E056E60
:1003D000320E016E5ED023D0958883A809D0190E05
:1003E0002F6E80DE010E056E350E016E52D017D0D5
:1003F000958A83AA09D0190E2F6E74DE010E056E40
:10040000380E016E46D00BD0958C83AC08D0190EF7
:100410002F6E68DE010E056E300E016E3AD0959299
:100420008C9295948C84958683A609D0190E2F6E94
:1004300059DE010E056E330E016E2BD023D0958848
:1004400083A809D0190E2F6E4DDE010E056E360EF3
:10045000016E1FD017D0958A83AA09D0190E2F6E6E
:1004600041DE010E056E390E016E13D00BD0958C56
:1004700083AC08D0190E2F6E35DE010E056E230EEB
:10048000016E07D095948C94190E2F6E2BDE490EB9
:10049000016E45EF04F00900F6CF29F0F7CF2AF0FE
:1004A000F5CF2EF01ADF29C0F6FF2AC0F7FF282E5D
:1004B000F2D71200276A286A296A2950030821E323
:1004C000D8902934036A180FE96E000E0320EA6EF3
:1004D000ECCF2BF0ED52EFCF2AF0D8902934036AFD
:1004E000080FE96E000E0320EA6EECCF03F0ED5228
:1004F000EF502A5C04E103502B5C01E1272A292AF2
:10050000DCD7296A2950030821E3D8902934036AEB
:10051000180FE96E000E0320EA6EECCF2BF0ED52BF
:10052000EFCF2AF0D8902934036A100FE96E000E3D
:100530000320EA6EECCF03F0ED52EF502A5C04E1A9
:1005400003502B5C01E1282A292ADCD72750040814
:1005500003E02850040810E1040EF66E000EF76E5A
:10056000E4DE080E2A6EFA0E2F6EBCDD2A2EFBD7B3
:10057000010E016E0FD00ED0140EF66E000EF76E47
:10058000D4DE080E2A6EFA0E2F6EACDD2A2EFBD7B3
:10059000000E016E94EF04F028502A02F3CF01F010
:1005A000F4CF00F02B02F350002629502A02F3501A
:1005B0000020026E12002F50016A2E5C03E22EC052
:1005C00000F00CD0006A080E306E2E3600362F5028
:1005D000005CD8B0006E0136302EF7D71200200E26
:1005E00029A8300E2A6E28C000F028AE08D0001EC0
:1005F000002A00C028F02D0E2A6E298E2980015075
:1006000028C02EF0640E2F6ED6DF00C028F0300E0A
:1006100001242B6E28C02EF00A0E2F6ECCDF300E78
:1006200000242D6E300E01242C6E2AC000F0300EF6
:100630002B5C04E0298229BE298412D02AC02BF029
:10064000200E2A6E300E2C5C04E0298029BE2982FF
:1006500007D0D8A4298004E12BC02CF0200E2B6EEB
:1006600029B405D029B206D029B007D009D02AC0B4
:100670002EF033DE2BC02EF030DE2CC02EF02DDE1F
:100680002DC02EF02ADE81EF03F0240EF66E000E50
:10069000F76E4BDE360EF66E000EF76E46DEFC0E83
:1006A000926E8990926E8982296A20C028F0030E8A
:1006B0002B6EE80E2A6E70DF02C029F001C028F010
:1006C00002C02AF02A2A2A06D8B403D02F680ADDED
:1006D000FAD728C02FF006DDFC0E926E8990926E3C
:1006E000899221C027F0275215E0480EF66E000EC1
:1006F000F76E150E286ECFDE27C028F0180E296E73
:100700006ED7040E286EFA0E2F6EECDC282EFBD767
:100710002706E9D7A2EF04F0FC0E926E8980926E54
:100720008992600EF66E000EF76EFFDD296A22C018
:1007300028F0030E2B6EE80E2A6E2EDF02C028F082
:1007400001C027F002C029F0292A2906D8B403D015
:100750002F68C8DCFAD727C02FF0C4DCFC0E926EDD
:100760008990926E8992740EF66E000EF76EDDDD42
:10077000080E276EFA0E2F6EB5DC272EFBD7ABEFD7
:1007800004F0276A275003080EE3D8902734036A41
:10079000180FE96E000E0320EA6EEC6AED52580E57
:1007A000EF6E272AEFD7840EF66E000EF76E0B0E53
:1007B000286E71DE18C02EF090DD010E276E2750D6
:1007C000030812E3D8902734036A180FE96E000E6D
:1007D0000320EA6EECCF29F0ED52EFCF28F028C0CD
:1007E0002EF07BDD272AEBD7920EF66E000EF76E09
:1007F0009CDDFA0E2F6E76DCC7EF04F0F86AD09E0F
:10080000490E046E056A020E206E0A0E216E020E5B
:10081000226EC150C00B0F09C16E070EB46E0FD00F
:100820001A0006000031003200330034003900376E
:100830000035003300580058005800580000000EE2
:10084000F86E080EF76E200EF66E0900F550006E79
:10085000000A13E00900F550016EE8BE05D00F0B49
:10086000EA6E0900F5CFE9FF01BC090001AC0900FF
:10087000F5CFEEFF004EE9D7F9D7F86A780E956EFE
:10088000236AD4D413D561DD66D501C004F00450C9
:10089000490844E004502A0841E0045023083EE09F
:1008A00005523CE02350030839E3D8902334036A0F
:1008B000180FE96E000E0320EA6E036A04C0EFFF12
:1008C00003C0ECFFC40EF66E000EF76E0B0E286E22
:1008D000E2DD18C02EF001DD010E246E2450030865
:1008E00012E3D8902434036A180FE96E000E032037
:1008F000EA6EECCF28F0ED52EFCF27F027C02EF0B4
:10090000ECDC242AEBD7D20EF66E000EF76E0DDD6E
:10091000FA0E2F6E72EC00F0056A232A04502308A9
:100920002EE105522CE0C6D501C025F0056A252C24
:1009300012D0040E276EFA0E2F6E72EC00F0272EE6
:10094000FAD7A3D6040E276EFA0E2F6E72EC00F0C3
:10095000272EFAD7E1D6F9DC266A265003080EE3E3
:10096000D8902634036A180FE96E000E0320EA6E51
:10097000EC6AED52580EEF6E262AEFD7236A045028
:100980002A0805E1055203E0056A236AFAD67CD7F6
:02099000030062
:020000040030CA
:0E00000000C0380E0087A1000FC00FE00F40B7
:00000001FF
;PIC18F4550
;CRC=9C22  CREATED="05-Ara-22 11:43"
